{
  "_format": "hh3-artifact-1",
  "contractName": "CourseRegistry",
  "sourceName": "contracts/CourseRegistry.sol",
  "abi": [
    {
      "inputs": [],
      "stateMutability": "nonpayable",
      "type": "constructor"
    },
    {
      "inputs": [],
      "name": "AccessControlBadConfirmation",
      "type": "error"
    },
    {
      "inputs": [
        {
          "internalType": "address",
          "name": "account",
          "type": "address"
        },
        {
          "internalType": "bytes32",
          "name": "neededRole",
          "type": "bytes32"
        }
      ],
      "name": "AccessControlUnauthorizedAccount",
      "type": "error"
    },
    {
      "anonymous": false,
      "inputs": [
        {
          "indexed": true,
          "internalType": "string",
          "name": "courseId",
          "type": "string"
        },
        {
          "indexed": true,
          "internalType": "address",
          "name": "teacher",
          "type": "address"
        },
        {
          "indexed": false,
          "internalType": "uint256",
          "name": "priceYD",
          "type": "uint256"
        },
        {
          "indexed": false,
          "internalType": "uint256",
          "name": "timestamp",
          "type": "uint256"
        }
      ],
      "name": "CourseCreated",
      "type": "event"
    },
    {
      "anonymous": false,
      "inputs": [
        {
          "indexed": true,
          "internalType": "string",
          "name": "courseId",
          "type": "string"
        },
        {
          "indexed": false,
          "internalType": "uint256",
          "name": "oldPrice",
          "type": "uint256"
        },
        {
          "indexed": false,
          "internalType": "uint256",
          "name": "newPrice",
          "type": "uint256"
        },
        {
          "indexed": false,
          "internalType": "uint256",
          "name": "timestamp",
          "type": "uint256"
        }
      ],
      "name": "CoursePriceUpdated",
      "type": "event"
    },
    {
      "anonymous": false,
      "inputs": [
        {
          "indexed": true,
          "internalType": "string",
          "name": "courseId",
          "type": "string"
        },
        {
          "indexed": false,
          "internalType": "uint256",
          "name": "totalPurchases",
          "type": "uint256"
        },
        {
          "indexed": false,
          "internalType": "uint256",
          "name": "timestamp",
          "type": "uint256"
        }
      ],
      "name": "CoursePurchaseRecorded",
      "type": "event"
    },
    {
      "anonymous": false,
      "inputs": [
        {
          "indexed": true,
          "internalType": "string",
          "name": "courseId",
          "type": "string"
        },
        {
          "indexed": false,
          "internalType": "enum CourseRegistry.CourseStatus",
          "name": "oldStatus",
          "type": "uint8"
        },
        {
          "indexed": false,
          "internalType": "enum CourseRegistry.CourseStatus",
          "name": "newStatus",
          "type": "uint8"
        },
        {
          "indexed": false,
          "internalType": "uint256",
          "name": "timestamp",
          "type": "uint256"
        }
      ],
      "name": "CourseStatusUpdated",
      "type": "event"
    },
    {
      "anonymous": false,
      "inputs": [
        {
          "indexed": true,
          "internalType": "bytes32",
          "name": "role",
          "type": "bytes32"
        },
        {
          "indexed": true,
          "internalType": "bytes32",
          "name": "previousAdminRole",
          "type": "bytes32"
        },
        {
          "indexed": true,
          "internalType": "bytes32",
          "name": "newAdminRole",
          "type": "bytes32"
        }
      ],
      "name": "RoleAdminChanged",
      "type": "event"
    },
    {
      "anonymous": false,
      "inputs": [
        {
          "indexed": true,
          "internalType": "bytes32",
          "name": "role",
          "type": "bytes32"
        },
        {
          "indexed": true,
          "internalType": "address",
          "name": "account",
          "type": "address"
        },
        {
          "indexed": true,
          "internalType": "address",
          "name": "sender",
          "type": "address"
        }
      ],
      "name": "RoleGranted",
      "type": "event"
    },
    {
      "anonymous": false,
      "inputs": [
        {
          "indexed": true,
          "internalType": "bytes32",
          "name": "role",
          "type": "bytes32"
        },
        {
          "indexed": true,
          "internalType": "address",
          "name": "account",
          "type": "address"
        },
        {
          "indexed": true,
          "internalType": "address",
          "name": "sender",
          "type": "address"
        }
      ],
      "name": "RoleRevoked",
      "type": "event"
    },
    {
      "inputs": [],
      "name": "DEFAULT_ADMIN_ROLE",
      "outputs": [
        {
          "internalType": "bytes32",
          "name": "",
          "type": "bytes32"
        }
      ],
      "stateMutability": "view",
      "type": "function"
    },
    {
      "inputs": [],
      "name": "PLATFORM_ROLE",
      "outputs": [
        {
          "internalType": "bytes32",
          "name": "",
          "type": "bytes32"
        }
      ],
      "stateMutability": "view",
      "type": "function"
    },
    {
      "inputs": [
        {
          "internalType": "string",
          "name": "",
          "type": "string"
        }
      ],
      "name": "courseExists",
      "outputs": [
        {
          "internalType": "bool",
          "name": "",
          "type": "bool"
        }
      ],
      "stateMutability": "view",
      "type": "function"
    },
    {
      "inputs": [
        {
          "internalType": "string",
          "name": "",
          "type": "string"
        }
      ],
      "name": "courses",
      "outputs": [
        {
          "internalType": "string",
          "name": "courseId",
          "type": "string"
        },
        {
          "internalType": "address",
          "name": "teacher",
          "type": "address"
        },
        {
          "internalType": "uint256",
          "name": "priceYD",
          "type": "uint256"
        },
        {
          "internalType": "enum CourseRegistry.CourseStatus",
          "name": "status",
          "type": "uint8"
        },
        {
          "internalType": "uint256",
          "name": "totalPurchases",
          "type": "uint256"
        },
        {
          "internalType": "uint256",
          "name": "createdAt",
          "type": "uint256"
        },
        {
          "internalType": "uint256",
          "name": "updatedAt",
          "type": "uint256"
        }
      ],
      "stateMutability": "view",
      "type": "function"
    },
    {
      "inputs": [
        {
          "internalType": "string",
          "name": "courseId",
          "type": "string"
        },
        {
          "internalType": "address",
          "name": "teacher",
          "type": "address"
        },
        {
          "internalType": "uint256",
          "name": "priceYD",
          "type": "uint256"
        }
      ],
      "name": "createCourse",
      "outputs": [],
      "stateMutability": "nonpayable",
      "type": "function"
    },
    {
      "inputs": [
        {
          "internalType": "string",
          "name": "courseId",
          "type": "string"
        }
      ],
      "name": "getCourse",
      "outputs": [
        {
          "components": [
            {
              "internalType": "string",
              "name": "courseId",
              "type": "string"
            },
            {
              "internalType": "address",
              "name": "teacher",
              "type": "address"
            },
            {
              "internalType": "uint256",
              "name": "priceYD",
              "type": "uint256"
            },
            {
              "internalType": "enum CourseRegistry.CourseStatus",
              "name": "status",
              "type": "uint8"
            },
            {
              "internalType": "uint256",
              "name": "totalPurchases",
              "type": "uint256"
            },
            {
              "internalType": "uint256",
              "name": "createdAt",
              "type": "uint256"
            },
            {
              "internalType": "uint256",
              "name": "updatedAt",
              "type": "uint256"
            }
          ],
          "internalType": "struct CourseRegistry.Course",
          "name": "",
          "type": "tuple"
        }
      ],
      "stateMutability": "view",
      "type": "function"
    },
    {
      "inputs": [
        {
          "internalType": "address",
          "name": "teacher",
          "type": "address"
        }
      ],
      "name": "getCoursesByTeacher",
      "outputs": [
        {
          "internalType": "string[]",
          "name": "",
          "type": "string[]"
        }
      ],
      "stateMutability": "view",
      "type": "function"
    },
    {
      "inputs": [
        {
          "internalType": "bytes32",
          "name": "role",
          "type": "bytes32"
        }
      ],
      "name": "getRoleAdmin",
      "outputs": [
        {
          "internalType": "bytes32",
          "name": "",
          "type": "bytes32"
        }
      ],
      "stateMutability": "view",
      "type": "function"
    },
    {
      "inputs": [
        {
          "internalType": "enum CourseRegistry.CourseStatus",
          "name": "status",
          "type": "uint8"
        }
      ],
      "name": "getStatusName",
      "outputs": [
        {
          "internalType": "string",
          "name": "",
          "type": "string"
        }
      ],
      "stateMutability": "pure",
      "type": "function"
    },
    {
      "inputs": [
        {
          "internalType": "address",
          "name": "account",
          "type": "address"
        }
      ],
      "name": "grantPlatformRole",
      "outputs": [],
      "stateMutability": "nonpayable",
      "type": "function"
    },
    {
      "inputs": [
        {
          "internalType": "bytes32",
          "name": "role",
          "type": "bytes32"
        },
        {
          "internalType": "address",
          "name": "account",
          "type": "address"
        }
      ],
      "name": "grantRole",
      "outputs": [],
      "stateMutability": "nonpayable",
      "type": "function"
    },
    {
      "inputs": [
        {
          "internalType": "bytes32",
          "name": "role",
          "type": "bytes32"
        },
        {
          "internalType": "address",
          "name": "account",
          "type": "address"
        }
      ],
      "name": "hasRole",
      "outputs": [
        {
          "internalType": "bool",
          "name": "",
          "type": "bool"
        }
      ],
      "stateMutability": "view",
      "type": "function"
    },
    {
      "inputs": [
        {
          "internalType": "string",
          "name": "courseId",
          "type": "string"
        }
      ],
      "name": "isCourseActive",
      "outputs": [
        {
          "internalType": "bool",
          "name": "",
          "type": "bool"
        }
      ],
      "stateMutability": "view",
      "type": "function"
    },
    {
      "inputs": [
        {
          "internalType": "string",
          "name": "courseId",
          "type": "string"
        }
      ],
      "name": "recordPurchase",
      "outputs": [],
      "stateMutability": "nonpayable",
      "type": "function"
    },
    {
      "inputs": [
        {
          "internalType": "bytes32",
          "name": "role",
          "type": "bytes32"
        },
        {
          "internalType": "address",
          "name": "callerConfirmation",
          "type": "address"
        }
      ],
      "name": "renounceRole",
      "outputs": [],
      "stateMutability": "nonpayable",
      "type": "function"
    },
    {
      "inputs": [
        {
          "internalType": "bytes32",
          "name": "role",
          "type": "bytes32"
        },
        {
          "internalType": "address",
          "name": "account",
          "type": "address"
        }
      ],
      "name": "revokeRole",
      "outputs": [],
      "stateMutability": "nonpayable",
      "type": "function"
    },
    {
      "inputs": [
        {
          "internalType": "bytes4",
          "name": "interfaceId",
          "type": "bytes4"
        }
      ],
      "name": "supportsInterface",
      "outputs": [
        {
          "internalType": "bool",
          "name": "",
          "type": "bool"
        }
      ],
      "stateMutability": "view",
      "type": "function"
    },
    {
      "inputs": [
        {
          "internalType": "string",
          "name": "courseId",
          "type": "string"
        },
        {
          "internalType": "uint256",
          "name": "newPriceYD",
          "type": "uint256"
        }
      ],
      "name": "updateCoursePrice",
      "outputs": [],
      "stateMutability": "nonpayable",
      "type": "function"
    },
    {
      "inputs": [
        {
          "internalType": "string",
          "name": "courseId",
          "type": "string"
        },
        {
          "internalType": "enum CourseRegistry.CourseStatus",
          "name": "newStatus",
          "type": "uint8"
        }
      ],
      "name": "updateCourseStatus",
      "outputs": [],
      "stateMutability": "nonpayable",
      "type": "function"
    }
  ],
  "bytecode": "0x608060405234801561000f575f5ffd5b506100225f5f1b3361002860201b60201c565b50610187565b5f610039838361011d60201b60201c565b6101135760015f5f8581526020019081526020015f205f015f8473ffffffffffffffffffffffffffffffffffffffff1673ffffffffffffffffffffffffffffffffffffffff1681526020019081526020015f205f6101000a81548160ff0219169083151502179055506100b061018060201b60201c565b73ffffffffffffffffffffffffffffffffffffffff168273ffffffffffffffffffffffffffffffffffffffff16847f2f8788117e7eff1d82e926ec794901d17c78024a50270940304540a733656f0d60405160405180910390a460019050610117565b5f90505b92915050565b5f5f5f8481526020019081526020015f205f015f8373ffffffffffffffffffffffffffffffffffffffff1673ffffffffffffffffffffffffffffffffffffffff1681526020019081526020015f205f9054906101000a900460ff16905092915050565b5f33905090565b612a69806101945f395ff3fe608060405234801561000f575f5ffd5b506004361061011f575f3560e01c806370824c5c116100ab578063d547741f1161006f578063d547741f1461032d578063da61816114610349578063e22a81b814610379578063ed496529146103a9578063efe4fe02146103d95761011f565b806370824c5c146102755780637a0741591461029357806391d14854146102c3578063a1b146c8146102f3578063a217fddf1461030f5761011f565b80632f2ff15d116100f25780632f2ff15d146101bb57806336568abe146101d75780634b616a7e146101f35780635367b33a1461020f5780635d1c6dce1461023f5761011f565b806301ffc9a7146101235780631afaec0214610153578063248a9ca31461016f578063254eda841461019f575b5f5ffd5b61013d6004803603810190610138919061187c565b6103f5565b60405161014a91906118c1565b60405180910390f35b61016d6004803603810190610168919061196e565b61046e565b005b610189600480360381019061018491906119fe565b610644565b6040516101969190611a38565b60405180910390f35b6101b960048036038101906101b49190611aab565b610660565b005b6101d560048036038101906101d09190611b1c565b610a7b565b005b6101f160048036038101906101ec9190611b1c565b610a9d565b005b61020d60048036038101906102089190611b7d565b610b18565b005b61022960048036038101906102249190611bda565b610d0b565b60405161023691906118c1565b60405180910390f35b61025960048036038101906102549190611d5d565b610da5565b60405161026c9796959493929190611e95565b60405180910390f35b61027d610eac565b60405161028a9190611a38565b60405180910390f35b6102ad60048036038101906102a89190611f09565b610ed0565b6040516102ba9190612037565b60405180910390f35b6102dd60048036038101906102d89190611b1c565b610fe1565b6040516102ea91906118c1565b60405180910390f35b61030d60048036038101906103089190611f09565b611044565b005b61031761107f565b6040516103249190611a38565b60405180910390f35b61034760048036038101906103429190611b1c565b611085565b005b610363600480360381019061035e9190611bda565b6110a7565b604051610370919061211d565b60405180910390f35b610393600480360381019061038e9190611d5d565b611294565b6040516103a091906118c1565b60405180910390f35b6103c360048036038101906103be919061213d565b6112c9565b6040516103d09190612168565b60405180910390f35b6103f360048036038101906103ee9190611bda565b6113da565b005b5f7f7965db0b000000000000000000000000000000000000000000000000000000007bffffffffffffffffffffffffffffffffffffffffffffffffffffffff1916827bffffffffffffffffffffffffffffffffffffffffffffffffffffffff19161480610467575061046682611510565b5b9050919050565b600383836040516104809291906121b6565b90815260200160405180910390205f9054906101000a900460ff166104da576040517f08c379a00000000000000000000000000000000000000000000000000000000081526004016104d19061223e565b60405180910390fd5b5f811161051c576040517f08c379a0000000000000000000000000000000000000000000000000000000008152600401610513906122cc565b60405180910390fd5b5f6001848460405161052f9291906121b6565b90815260200160405180910390209050806001015f9054906101000a900473ffffffffffffffffffffffffffffffffffffffff1673ffffffffffffffffffffffffffffffffffffffff163373ffffffffffffffffffffffffffffffffffffffff16146105d0576040517f08c379a00000000000000000000000000000000000000000000000000000000081526004016105c79061235a565b60405180910390fd5b5f8160020154905082826002018190555042826006018190555084846040516105fa9291906121b6565b60405180910390207f90762b452eb568b16e7af95b8fe3501e979b62f45a85460eff1e22d3a71b017a82854260405161063593929190612378565b60405180910390a25050505050565b5f5f5f8381526020019081526020015f20600101549050919050565b7f797343f8d6a29aafeb3aaf0910a8973e0081c60c2f6c1f775cd9f76ea348fc1e61068a81611579565b5f85859050116106cf576040517f08c379a00000000000000000000000000000000000000000000000000000000081526004016106c6906123f7565b60405180910390fd5b5f73ffffffffffffffffffffffffffffffffffffffff168373ffffffffffffffffffffffffffffffffffffffff160361073d576040517f08c379a000000000000000000000000000000000000000000000000000000000815260040161073490612485565b60405180910390fd5b6003858560405161074f9291906121b6565b90815260200160405180910390205f9054906101000a900460ff16156107aa576040517f08c379a00000000000000000000000000000000000000000000000000000000081526004016107a190612513565b60405180910390fd5b5f82116107ec576040517f08c379a00000000000000000000000000000000000000000000000000000000081526004016107e3906122cc565b60405180910390fd5b6040518060e0016040528086868080601f0160208091040260200160405190810160405280939291908181526020018383808284375f81840152601f19601f8201169050808301925050505050505081526020018473ffffffffffffffffffffffffffffffffffffffff1681526020018381526020015f600281111561087557610874611e22565b5b81526020015f8152602001428152602001428152506001868660405161089c9291906121b6565b90815260200160405180910390205f820151815f0190816108bd919061272e565b506020820151816001015f6101000a81548173ffffffffffffffffffffffffffffffffffffffff021916908373ffffffffffffffffffffffffffffffffffffffff160217905550604082015181600201556060820151816003015f6101000a81548160ff0219169083600281111561093857610937611e22565b5b02179055506080820151816004015560a0820151816005015560c0820151816006015590505060025f8473ffffffffffffffffffffffffffffffffffffffff1673ffffffffffffffffffffffffffffffffffffffff1681526020019081526020015f20858590918060018154018082558091505060019003905f5260205f20015f9091929091929091929091925091826109d3929190612807565b506001600386866040516109e89291906121b6565b90815260200160405180910390205f6101000a81548160ff0219169083151502179055508273ffffffffffffffffffffffffffffffffffffffff168585604051610a339291906121b6565b60405180910390207f28b049aaeb0094e71f05a9792ab6f8d4bfb9785bda0f22e90506ea94c4362ad18442604051610a6c9291906128d4565b60405180910390a35050505050565b610a8482610644565b610a8d81611579565b610a97838361158d565b50505050565b610aa5611676565b73ffffffffffffffffffffffffffffffffffffffff168173ffffffffffffffffffffffffffffffffffffffff1614610b09576040517f6697b23200000000000000000000000000000000000000000000000000000000815260040160405180910390fd5b610b13828261167d565b505050565b60038383604051610b2a9291906121b6565b90815260200160405180910390205f9054906101000a900460ff16610b84576040517f08c379a0000000000000000000000000000000000000000000000000000000008152600401610b7b9061223e565b60405180910390fd5b5f60018484604051610b979291906121b6565b90815260200160405180910390209050806001015f9054906101000a900473ffffffffffffffffffffffffffffffffffffffff1673ffffffffffffffffffffffffffffffffffffffff163373ffffffffffffffffffffffffffffffffffffffff161480610c2a5750610c297f797343f8d6a29aafeb3aaf0910a8973e0081c60c2f6c1f775cd9f76ea348fc1e33610fe1565b5b610c69576040517f08c379a0000000000000000000000000000000000000000000000000000000008152600401610c6090612945565b60405180910390fd5b5f816003015f9054906101000a900460ff16905082826003015f6101000a81548160ff02191690836002811115610ca357610ca2611e22565b5b02179055504282600601819055508484604051610cc19291906121b6565b60405180910390207f7df800597bc7dc51d2c80c3715bc65d4afe2a08bb50c35786577866cd32d29d5828542604051610cfc93929190612963565b60405180910390a25050505050565b5f60038383604051610d1e9291906121b6565b90815260200160405180910390205f9054906101000a900460ff16610d45575f9050610d9f565b60016002811115610d5957610d58611e22565b5b60018484604051610d6b9291906121b6565b90815260200160405180910390206003015f9054906101000a900460ff166002811115610d9b57610d9a611e22565b5b1490505b92915050565b6001818051602081018201805184825260208301602085012081835280955050505050505f91509050805f018054610ddc9061255e565b80601f0160208091040260200160405190810160405280929190818152602001828054610e089061255e565b8015610e535780601f10610e2a57610100808354040283529160200191610e53565b820191905f5260205f20905b815481529060010190602001808311610e3657829003601f168201915b505050505090806001015f9054906101000a900473ffffffffffffffffffffffffffffffffffffffff1690806002015490806003015f9054906101000a900460ff16908060040154908060050154908060060154905087565b7f797343f8d6a29aafeb3aaf0910a8973e0081c60c2f6c1f775cd9f76ea348fc1e81565b606060025f8373ffffffffffffffffffffffffffffffffffffffff1673ffffffffffffffffffffffffffffffffffffffff1681526020019081526020015f20805480602002602001604051908101604052809291908181526020015f905b82821015610fd6578382905f5260205f20018054610f4b9061255e565b80601f0160208091040260200160405190810160405280929190818152602001828054610f779061255e565b8015610fc25780601f10610f9957610100808354040283529160200191610fc2565b820191905f5260205f20905b815481529060010190602001808311610fa557829003601f168201915b505050505081526020019060010190610f2e565b505050509050919050565b5f5f5f8481526020019081526020015f205f015f8373ffffffffffffffffffffffffffffffffffffffff1673ffffffffffffffffffffffffffffffffffffffff1681526020019081526020015f205f9054906101000a900460ff16905092915050565b5f5f1b61105081611579565b61107a7f797343f8d6a29aafeb3aaf0910a8973e0081c60c2f6c1f775cd9f76ea348fc1e8361158d565b505050565b5f5f1b81565b61108e82610644565b61109781611579565b6110a1838361167d565b50505050565b6110af6117b7565b600383836040516110c19291906121b6565b90815260200160405180910390205f9054906101000a900460ff1661111b576040517f08c379a00000000000000000000000000000000000000000000000000000000081526004016111129061223e565b60405180910390fd5b6001838360405161112d9291906121b6565b90815260200160405180910390206040518060e00160405290815f820180546111559061255e565b80601f01602080910402602001604051908101604052809291908181526020018280546111819061255e565b80156111cc5780601f106111a3576101008083540402835291602001916111cc565b820191905f5260205f20905b8154815290600101906020018083116111af57829003601f168201915b50505050508152602001600182015f9054906101000a900473ffffffffffffffffffffffffffffffffffffffff1673ffffffffffffffffffffffffffffffffffffffff1673ffffffffffffffffffffffffffffffffffffffff16815260200160028201548152602001600382015f9054906101000a900460ff16600281111561125857611257611e22565b5b600281111561126a57611269611e22565b5b81526020016004820154815260200160058201548152602001600682015481525050905092915050565b6003818051602081018201805184825260208301602085012081835280955050505050505f915054906101000a900460ff1681565b6060600160028111156112df576112de611e22565b5b8260028111156112f2576112f1611e22565b5b03611334576040518060400160405280600981526020017f5055424c4953484544000000000000000000000000000000000000000000000081525090506113d5565b60028081111561134757611346611e22565b5b82600281111561135a57611359611e22565b5b0361139c576040518060400160405280600881526020017f415243484956454400000000000000000000000000000000000000000000000081525090506113d5565b6040518060400160405280600581526020017f445241465400000000000000000000000000000000000000000000000000000081525090505b919050565b7f797343f8d6a29aafeb3aaf0910a8973e0081c60c2f6c1f775cd9f76ea348fc1e61140481611579565b600383836040516114169291906121b6565b90815260200160405180910390205f9054906101000a900460ff16611470576040517f08c379a00000000000000000000000000000000000000000000000000000000081526004016114679061223e565b60405180910390fd5b5f600184846040516114839291906121b6565b90815260200160405180910390209050806004015f8154809291906114a7906129c5565b919050555042816006018190555083836040516114c59291906121b6565b60405180910390207f5855ca6201c007c6b578e76b368e1132fc8d958082dfca24c54238f28c5c659e8260040154426040516115029291906128d4565b60405180910390a250505050565b5f7f01ffc9a7000000000000000000000000000000000000000000000000000000007bffffffffffffffffffffffffffffffffffffffffffffffffffffffff1916827bffffffffffffffffffffffffffffffffffffffffffffffffffffffff1916149050919050565b61158a81611585611676565b611766565b50565b5f6115988383610fe1565b61166c5760015f5f8581526020019081526020015f205f015f8473ffffffffffffffffffffffffffffffffffffffff1673ffffffffffffffffffffffffffffffffffffffff1681526020019081526020015f205f6101000a81548160ff021916908315150217905550611609611676565b73ffffffffffffffffffffffffffffffffffffffff168273ffffffffffffffffffffffffffffffffffffffff16847f2f8788117e7eff1d82e926ec794901d17c78024a50270940304540a733656f0d60405160405180910390a460019050611670565b5f90505b92915050565b5f33905090565b5f6116888383610fe1565b1561175c575f5f5f8581526020019081526020015f205f015f8473ffffffffffffffffffffffffffffffffffffffff1673ffffffffffffffffffffffffffffffffffffffff1681526020019081526020015f205f6101000a81548160ff0219169083151502179055506116f9611676565b73ffffffffffffffffffffffffffffffffffffffff168273ffffffffffffffffffffffffffffffffffffffff16847ff6391f5c32d9c69d2a47ea670b442974b53935d1edc7fd64eb21e047a839171b60405160405180910390a460019050611760565b5f90505b92915050565b6117708282610fe1565b6117b35780826040517fe2517d3f0000000000000000000000000000000000000000000000000000000081526004016117aa929190612a0c565b60405180910390fd5b5050565b6040518060e00160405280606081526020015f73ffffffffffffffffffffffffffffffffffffffff1681526020015f81526020015f60028111156117fe576117fd611e22565b5b81526020015f81526020015f81526020015f81525090565b5f604051905090565b5f5ffd5b5f5ffd5b5f7fffffffff0000000000000000000000000000000000000000000000000000000082169050919050565b61185b81611827565b8114611865575f5ffd5b50565b5f8135905061187681611852565b92915050565b5f602082840312156118915761189061181f565b5b5f61189e84828501611868565b91505092915050565b5f8115159050919050565b6118bb816118a7565b82525050565b5f6020820190506118d45f8301846118b2565b92915050565b5f5ffd5b5f5ffd5b5f5ffd5b5f5f83601f8401126118fb576118fa6118da565b5b8235905067ffffffffffffffff811115611918576119176118de565b5b602083019150836001820283011115611934576119336118e2565b5b9250929050565b5f819050919050565b61194d8161193b565b8114611957575f5ffd5b50565b5f8135905061196881611944565b92915050565b5f5f5f604084860312156119855761198461181f565b5b5f84013567ffffffffffffffff8111156119a2576119a1611823565b5b6119ae868287016118e6565b935093505060206119c18682870161195a565b9150509250925092565b5f819050919050565b6119dd816119cb565b81146119e7575f5ffd5b50565b5f813590506119f8816119d4565b92915050565b5f60208284031215611a1357611a1261181f565b5b5f611a20848285016119ea565b91505092915050565b611a32816119cb565b82525050565b5f602082019050611a4b5f830184611a29565b92915050565b5f73ffffffffffffffffffffffffffffffffffffffff82169050919050565b5f611a7a82611a51565b9050919050565b611a8a81611a70565b8114611a94575f5ffd5b50565b5f81359050611aa581611a81565b92915050565b5f5f5f5f60608587031215611ac357611ac261181f565b5b5f85013567ffffffffffffffff811115611ae057611adf611823565b5b611aec878288016118e6565b94509450506020611aff87828801611a97565b9250506040611b108782880161195a565b91505092959194509250565b5f5f60408385031215611b3257611b3161181f565b5b5f611b3f858286016119ea565b9250506020611b5085828601611a97565b9150509250929050565b60038110611b66575f5ffd5b50565b5f81359050611b7781611b5a565b92915050565b5f5f5f60408486031215611b9457611b9361181f565b5b5f84013567ffffffffffffffff811115611bb157611bb0611823565b5b611bbd868287016118e6565b93509350506020611bd086828701611b69565b9150509250925092565b5f5f60208385031215611bf057611bef61181f565b5b5f83013567ffffffffffffffff811115611c0d57611c0c611823565b5b611c19858286016118e6565b92509250509250929050565b5f5ffd5b5f601f19601f8301169050919050565b7f4e487b71000000000000000000000000000000000000000000000000000000005f52604160045260245ffd5b611c6f82611c29565b810181811067ffffffffffffffff82111715611c8e57611c8d611c39565b5b80604052505050565b5f611ca0611816565b9050611cac8282611c66565b919050565b5f67ffffffffffffffff821115611ccb57611cca611c39565b5b611cd482611c29565b9050602081019050919050565b828183375f83830152505050565b5f611d01611cfc84611cb1565b611c97565b905082815260208101848484011115611d1d57611d1c611c25565b5b611d28848285611ce1565b509392505050565b5f82601f830112611d4457611d436118da565b5b8135611d54848260208601611cef565b91505092915050565b5f60208284031215611d7257611d7161181f565b5b5f82013567ffffffffffffffff811115611d8f57611d8e611823565b5b611d9b84828501611d30565b91505092915050565b5f81519050919050565b5f82825260208201905092915050565b8281835e5f83830152505050565b5f611dd682611da4565b611de08185611dae565b9350611df0818560208601611dbe565b611df981611c29565b840191505092915050565b611e0d81611a70565b82525050565b611e1c8161193b565b82525050565b7f4e487b71000000000000000000000000000000000000000000000000000000005f52602160045260245ffd5b60038110611e6057611e5f611e22565b5b50565b5f819050611e7082611e4f565b919050565b5f611e7f82611e63565b9050919050565b611e8f81611e75565b82525050565b5f60e0820190508181035f830152611ead818a611dcc565b9050611ebc6020830189611e04565b611ec96040830188611e13565b611ed66060830187611e86565b611ee36080830186611e13565b611ef060a0830185611e13565b611efd60c0830184611e13565b98975050505050505050565b5f60208284031215611f1e57611f1d61181f565b5b5f611f2b84828501611a97565b91505092915050565b5f81519050919050565b5f82825260208201905092915050565b5f819050602082019050919050565b5f82825260208201905092915050565b5f611f7782611da4565b611f818185611f5d565b9350611f91818560208601611dbe565b611f9a81611c29565b840191505092915050565b5f611fb08383611f6d565b905092915050565b5f602082019050919050565b5f611fce82611f34565b611fd88185611f3e565b935083602082028501611fea85611f4e565b805f5b8581101561202557848403895281516120068582611fa5565b945061201183611fb8565b925060208a01995050600181019050611fed565b50829750879550505050505092915050565b5f6020820190508181035f83015261204f8184611fc4565b905092915050565b61206081611a70565b82525050565b61206f8161193b565b82525050565b61207e81611e75565b82525050565b5f60e083015f8301518482035f86015261209e8282611f6d565b91505060208301516120b36020860182612057565b5060408301516120c66040860182612066565b5060608301516120d96060860182612075565b5060808301516120ec6080860182612066565b5060a08301516120ff60a0860182612066565b5060c083015161211260c0860182612066565b508091505092915050565b5f6020820190508181035f8301526121358184612084565b905092915050565b5f602082840312156121525761215161181f565b5b5f61215f84828501611b69565b91505092915050565b5f6020820190508181035f8301526121808184611dcc565b905092915050565b5f81905092915050565b5f61219d8385612188565b93506121aa838584611ce1565b82840190509392505050565b5f6121c2828486612192565b91508190509392505050565b7f436f7572736552656769737472793a20636f7572736520646f6573206e6f74205f8201527f6578697374000000000000000000000000000000000000000000000000000000602082015250565b5f612228602583611dae565b9150612233826121ce565b604082019050919050565b5f6020820190508181035f8301526122558161221c565b9050919050565b7f436f7572736552656769737472793a207072696365206d7573742062652067725f8201527f6561746572207468616e20300000000000000000000000000000000000000000602082015250565b5f6122b6602c83611dae565b91506122c18261225c565b604082019050919050565b5f6020820190508181035f8301526122e3816122aa565b9050919050565b7f436f7572736552656769737472793a206f6e6c7920746561636865722063616e5f8201527f2075706461746520707269636500000000000000000000000000000000000000602082015250565b5f612344602d83611dae565b915061234f826122ea565b604082019050919050565b5f6020820190508181035f83015261237181612338565b9050919050565b5f60608201905061238b5f830186611e13565b6123986020830185611e13565b6123a56040830184611e13565b949350505050565b7f436f7572736552656769737472793a20656d70747920636f75727365496400005f82015250565b5f6123e1601e83611dae565b91506123ec826123ad565b602082019050919050565b5f6020820190508181035f83015261240e816123d5565b9050919050565b7f436f7572736552656769737472793a2074656163686572206973207a65726f205f8201527f6164647265737300000000000000000000000000000000000000000000000000602082015250565b5f61246f602783611dae565b915061247a82612415565b604082019050919050565b5f6020820190508181035f83015261249c81612463565b9050919050565b7f436f7572736552656769737472793a20636f7572736520616c726561647920655f8201527f7869737473000000000000000000000000000000000000000000000000000000602082015250565b5f6124fd602583611dae565b9150612508826124a3565b604082019050919050565b5f6020820190508181035f83015261252a816124f1565b9050919050565b7f4e487b71000000000000000000000000000000000000000000000000000000005f52602260045260245ffd5b5f600282049050600182168061257557607f821691505b60208210810361258857612587612531565b5b50919050565b5f819050815f5260205f209050919050565b5f6020601f8301049050919050565b5f82821b905092915050565b5f600883026125ea7fffffffffffffffffffffffffffffffffffffffffffffffffffffffffffffffff826125af565b6125f486836125af565b95508019841693508086168417925050509392505050565b5f819050919050565b5f61262f61262a6126258461193b565b61260c565b61193b565b9050919050565b5f819050919050565b61264883612615565b61265c61265482612636565b8484546125bb565b825550505050565b5f5f905090565b612673612664565b61267e81848461263f565b505050565b5b818110156126a1576126965f8261266b565b600181019050612684565b5050565b601f8211156126e6576126b78161258e565b6126c0846125a0565b810160208510156126cf578190505b6126e36126db856125a0565b830182612683565b50505b505050565b5f82821c905092915050565b5f6127065f19846008026126eb565b1980831691505092915050565b5f61271e83836126f7565b9150826002028217905092915050565b61273782611da4565b67ffffffffffffffff8111156127505761274f611c39565b5b61275a825461255e565b6127658282856126a5565b5f60209050601f831160018114612796575f8415612784578287015190505b61278e8582612713565b8655506127f5565b601f1984166127a48661258e565b5f5b828110156127cb578489015182556001820191506020850194506020810190506127a6565b868310156127e857848901516127e4601f8916826126f7565b8355505b6001600288020188555050505b505050505050565b5f82905092915050565b61281183836127fd565b67ffffffffffffffff81111561282a57612829611c39565b5b612834825461255e565b61283f8282856126a5565b5f601f83116001811461286c575f841561285a578287013590505b6128648582612713565b8655506128cb565b601f19841661287a8661258e565b5f5b828110156128a15784890135825560018201915060208501945060208101905061287c565b868310156128be57848901356128ba601f8916826126f7565b8355505b6001600288020188555050505b50505050505050565b5f6040820190506128e75f830185611e13565b6128f46020830184611e13565b9392505050565b7f436f7572736552656769737472793a206e6f7420617574686f72697a656400005f82015250565b5f61292f601e83611dae565b915061293a826128fb565b602082019050919050565b5f6020820190508181035f83015261295c81612923565b9050919050565b5f6060820190506129765f830186611e86565b6129836020830185611e86565b6129906040830184611e13565b949350505050565b7f4e487b71000000000000000000000000000000000000000000000000000000005f52601160045260245ffd5b5f6129cf8261193b565b91507fffffffffffffffffffffffffffffffffffffffffffffffffffffffffffffffff8203612a0157612a00612998565b5b600182019050919050565b5f604082019050612a1f5f830185611e04565b612a2c6020830184611a29565b939250505056fea26469706673582212206f103629294c42ed80ed9df81e39a2cb65e310bd92b507bc8a9a974356a43d9364736f6c634300081c0033",
  "linkReferences": {},
  "deployedLinkReferences": {},
  "immutableReferences": {},
  "inputSourceName": "project/contracts/CourseRegistry.sol",
  "buildInfoId": "solc-0_8_28-b0752ab9ef842d333e6de2350eb2fc9662d1820a"
}